:020000040800F2
:10000000C06000203103000897250008BD1C0008CF
:10001000952500082D0D0008694500080000000026
:10002000000000000000000000000000790200084D
:100030006912000800000000CD0200088D310008A0
:100040004B0300084B0300084B0300084B03000858
:100050004B0300084B0300084B0300084B03000848
:100060004B0300084B0300084B0300084B03000838
:100070004B0300084B0300084B0300084B03000828
:100080004B0300084B0300084B0300084B03000818
:10009000FD0E00084B0300084B0300084B0300084B
:1000A0004B0300084B0300084B0300084B030008F8
:1000B00059350008693500087D3500084B030008F4
:1000C0004B0300084B0300084B0300084B030008D8
:1000D0004B030008BD3F0008D54000080943000855
:1000E0004B0300084B0300084B030008A53500082C
:1000F000113900084B030008B93500084B0300080C
:100100004B0300084B030008913500084B0300081F
:100110004B030008D13E00084B0300084B030008C6
:100120004B0300084B0300084B0300084B03000877
:100130004B0300084B0300084B0300084B03000867
:100140004B0300084B0300084B0300084B03000857
:100150004B0300084B0300084B0300084B03000847
:100160004B0300084B0300084B0300084B03000837
:100170004B0300084B0300084B0300084B03000827
:100180004B0300084B03000800F002F800F064F88D
:100190000AA090E8000C82448344AAF10107DA45E2
:1001A00001D100F059F8AFF2090EBAE80F0013F0D0
:1001B000010F18BFFB1A43F0010318475CB500009C
:1001C0007CB500000A444FF0000C10F8013B13F01E
:1001D000070408BF10F8014B1D1108BF10F8015BA0
:1001E000641E05D010F8016B641E01F8016BF9D193
:1001F00013F0080F1EBF10F8014BAD1C0C1B09D1EA
:100200006D1E58BF01F801CBFAD505E014F8016B5B
:1002100001F8016B6D1EF9D59142D6D370470000ED
:100220000023002400250026103A28BF78C1FBD8FF
:10023000520728BF30C148BF0B607047642900F0E7
:100240000381732900F03E82002070471FB509F03A
:1002500064FE1FBD10B510BD00F0B0FA1146FFF7E7
:10026000F5FF06F0B7F900F0CEFA03B4FFF7F2FF9E
:1002700003BC05F0C5FE00002A4B19680868B0E809
:10028000F04F80F30988BFF36F8F4FF0000080F3C9
:10029000118870470000000006480068006880F37D
:1002A000088862B661B6BFF34F8FBFF36F8F00DF70
:1002B00000BF00BF08ED00E0DFF80C00016841F46A
:1002C00070010160704700BF88ED00E0EFF3098026
:1002D000BFF36F8F134B1A681EF0100F08BF20ED8D
:1002E000108A20E9F04F106008B44FF0500080F3FE
:1002F0001188BFF34F8FBFF36F8F08F08FF94FF066
:10030000000080F3118808BC19680868B0E8F04F55
:100310001EF0100F08BFB0EC108A80F30988BFF3FD
:100320006F8F7047A8000020EFF305807047000032
:100330000948804709480047FEE7FEE7FEE7FEE779
:10034000FEE7FEE7FEE7FEE7FEE7FEE704480549B5
:10035000054A064B70470000A131000889010008DA
:10036000C05A0020C0600020C05C0020C05C00209B
:10037000704700000FB4044910B503AA029800F0BA
:10038000A5F910BC5DF814FB940000202DE9F041A4
:100390000E460446002020622046E168884730B3BC
:1003A000252805D0D4E901219047206A401CF2E7B6
:1003B000E168204600278847050018D0A5F14100D4
:1003C000192802D820354FF40067324629462046C6
:1003D0002760FFF733FF40B1012804D0F61D26F057
:1003E00007060836D8E7361DD6E72846DAE7206A3A
:1003F000BDE8F08170B50C460546012A05D0287885
:10040000800600D5EA69002302E0012305E05B1CB9
:10041000934202D2E05C0028F9D1A869E618C01A1C
:10042000A861286A184428622846AFF3008004E0D7
:10043000D5E9012114F8010B9047B442F8D32846BE
:10044000AFF3008070BD00002DE9F04106460024A6
:1004500010687529314616A510D0AFF3008000282A
:1004600002DA404213A507E031688A0701D512A5D8
:1004700002E0490704D511A5012401E0AFF3008093
:1004800000210A2206F1240709E0B0FBF2FCB0FBD0
:10049000F2F302FB1C00303078541846491C002847
:1004A000F3D123462A463046BDE8F04100F086B835
:1004B000000000002D0000002B00000020000000C4
:1004C000032A40F2308010F0030C00F0158011F880
:1004D000013BBCF1020F624498BF11F801CB00F858
:1004E000013B38BF11F8013BA2F1040298BF00F8AC
:1004F00001CB38BF00F8013B11F0030300F0F88096
:10050000083AC0F0088051F8043B083A51F804CB8F
:10051000A0E80810F5E7121D5CBF51F8043B40F855
:10052000043BAFF30080D20724BF11F8013B11F860
:1005300001CB48BF11F8012B24BF00F8013B00F8A4
:1005400001CB48BF00F8012B704702F0FF0343EADC
:10055000032242EA024200F002B84FF000020429EE
:10056000C0F0128010F0030C00F0F680CCF1040C07
:10057000BCF1020F18BF00F8012BA8BF20F8022B16
:10058000A1EB0C0100F0E8B85FEAC17C24BF00F8E1
:10059000012B00F8012B48BF00F8012B7047704772
:1005A00070477047704710B500F0FCF8006810BD48
:1005B00010B5044600F0F6F8046010BD2DE9F047D0
:1005C0000D4699469246044600F1240801688806C3
:1005D00004D5E06921F01001216000E00120A8426B
:1005E00001DD471B00E00027A1697A1902EB090031
:1005F000081AA0612078C00602D42046AFF300801C
:10060000002608E0D4E901211AF806009047206A84
:10061000401C761C20624E45F4DB2078C0060AD5CB
:100620002046AFF3008006E0D4E901213020904756
:10063000206A401C2062381EA7F10107F4DC07E0A5
:10064000D4E9012118F805009047206A401C206277
:10065000281EA5F10105F3DC2046AFF300802078C9
:10066000000602D50220BDE8F0870120FBE700006C
:1006700001694A1C02610878704700B58FB0CDE966
:1006800001310021059105497944CDE90310114656
:100690006846FFF77BFE0FB000BD0000E5FFFFFFDF
:1006A00010B5436913B1AFF3008001E0FFF7A2FE7C
:1006B000012010BD127800F124010A7000224A7056
:1006C0000122EDE711684FF0FF32E9E7074B70B503
:1006D0000D467B44FFF7D1FF0446284600F066F83C
:1006E00010B14FF0FF3070BD204670BDCB5E0000F2
:1006F00010B5203AC0F00B80B1E81850203AA0E8BD
:100700001850B1E81850A0E81850BFF4F5AF5FEAF0
:10071000027C24BFB1E81850A0E8185044BF18C9A3
:1007200018C0BDE810405FEA827C24BF51F8043B4A
:1007300040F8043B08BF7047D20728BF31F8023B9E
:1007400048BF11F8012B28BF20F8023B48BF00F832
:10075000012B70474FF0000200B5134694469646B1
:10076000203922BFA0E80C50A0E80C50B1F12001C4
:10077000BFF4F7AF090728BFA0E80C5048BF0CC072
:100780005DF804EB890028BF40F8042B08BF7047D0
:1007900048BF20F8022B11F0804F18BF00F8012B42
:1007A00070470000004870475C5A0020007B00F052
:1007B00080007047004870475C5A00207546FFF77C
:1007C000F9FFAE4605006946534620F0070085460E
:1007D00018B020B5FFF7BAFDBDE820404FF0000685
:1007E0004FF000074FF000084FF0000B21F0070119
:1007F000AC46ACE8C009ACE8C009ACE8C009ACE85C
:10080000C0098D46704710B50446AFF300802046FE
:10081000BDE81040FFF729BD0029816802D041F0F2
:10082000010101E021F0010181607047084B10B522
:10083000D3F8042307490A40D0E900142143D0E942
:100840000240044321431143C3F8041310BD0000C8
:1008500000200140E030FCFFC06C80B270470246CF
:10086000002012680A4200D00120704730B542686B
:100870000F4B0C791A400B6842EA04221343436081
:1008800082680C4B4D791A40D1E9034323438C68AD
:1008900044EA4504234313438360C26A097D22F47A
:1008A0007002491EC9B242EA0151C16230BD000066
:1008B000FFFEFFFCFDF7FFC070B5072609290AD926
:1008C000C568A1F10A0404EB4404A640B543A34063
:1008D0001D43C56007E0056901EB4104A640B5432F
:1008E000A3401D4305611F23072A09D2446B521EF2
:1008F00002EB820293409C4391400C43446370BDE1
:100900000D2A09D2046BD21F02EB820293409C4352
:1009100091400C43046370BDC46A0D3A02EB82023D
:1009200093409C4391400C43C46270BD816841F088
:10093000804181607047000038B535489FED351A19
:100940009FED350AD0ED000A10EE810AF3EE0B0A96
:1009500080EE201ABDEEC10A10EE103A642B00DDC5
:1009600064232E48DFED2E0A90ED000A20EE200AC7
:10097000BDEEC00A10EE100A002800DA40422949F4
:1009800091ED000A20EE200ABDEEC00A10EE101A0A
:10099000002900DA4942244C2278A2B100222270B8
:1009A000224C2578012D10D0214DB5F904403AB3E1
:1009B000B5F90220B5F9001001B02346BDE830407A
:1009C0001CA0FFF7D7BC0122E9E71E4890ED000A02
:1009D0001D48BDEEC00A10EE103A90ED000A1B480B
:1009E000BDEEC00A10EE102A90ED000A18A0BDEE70
:1009F000C00A10EE101AFFF7BDFC0020207038BDB1
:100A0000CAB2C1B216A00094FFF7B4FC38BD000012
:100A10001800002000007A4400401C46E4590020E1
:100A20000000C842F8590020B00100206D010020EC
:100A3000CC0100207B4225643A25643A25647D245C
:100A400000000000280100202401002020010020D7
:100A50007B4325643A25643A25647D240000000028
:100A60007B4125643A25643A25643A25647D240057
:100A700030B58DB00121022002F0A6F801210D024F
:100A8000284602F0B9F8032002218DF82C000A91C3
:100A900000248DF82F400AA9134800F0E3FF01213C
:100AA000284602F0B5F80021284602F0B1F8069475
:100AB00068020994CDE9070406A8FFF7B7FE8DF890
:100AC000044000948DF80540029404940120074CE2
:100AD0008DF8140069462046FFF7C8FE0121204624
:100AE000FFF79AFE0DB030BD000402400020014027
:100AF00070B58CB00121022002F066F801214E028F
:100B0000304602F079F803208DF82C0001250024EE
:100B10000A958DF82F400AA9134800F0A3FF012180
:100B2000304602F075F80021304602F071F8069464
:100B300068040994CDE9070406A8FFF777FE8DF84D
:100B4000044000948DF8054002940494074C8DF8FD
:100B5000145069462046FFF789FE01212046FFF721
:100B60005BFE0CB070BD000000040240002101409B
:100B70001CB505F021FD41F2707BDFF88CA1634CC0
:100B8000634DDFF89091DFF890810027019007F026
:100B90004FF90A2101A807F06FFBDAF80400564666
:100BA000584501DA401C706000F0DAFF94ED000A4D
:100BB00005F0EEFCD6ED030A584830EE200A86ED2B
:100BC000030A00680028E2D101F024FB544890EDAC
:100BD000000ABDEEC00A10EE100A03F051F928B168
:100BE00000231A4619461846009752E0D4ED020A2F
:100BF00094ED000A01F000FA00EE100AB8EEC00A07
:100C000084ED010AD5ED020A95ED000A01F032FAF1
:100C100000EE100A4E46B8EEC00A85ED010AD9ED85
:100C2000020A99ED000A01F063FA00EE100A434649
:100C3000B8EEC00A86ED010AD8ED020A98ED000A66
:100C400001F094FA00EE100A44F23C10B8EEC00A2B
:100C500083ED010A01F01AFB32480078062896D28B
:100C6000DFE800F0031A34500350009793ED010AB7
:100C7000BDEEC00A10EE103A96ED010AB1EE400A40
:100C8000BDEEC00A10EE102A95ED010AB1EE400A41
:100C90002DE002F095F97AE7009793ED010ABDEE99
:100CA000C00A10EE103A96ED010AB1EE400ABDEE10
:100CB000C00A10EE102A95ED010ABDEEC00A10EE32
:100CC000101A94ED010AB1EE400A16E016480068C9
:100CD000009093ED010ABDEEC00A10EE103A96EDB9
:100CE000010ABDEEC00A10EE102A95ED010ABDEE14
:100CF000C00A10EE101A94ED010ABDEEC00A10EE03
:100D0000100AC6E70097E4E770010020E4590020CC
:100D1000F85900200C5A0020205A002034010020ED
:100D2000180000201D01002044010020FEE7000003
:100D30001CB50121084601F047FF4FF48070009078
:100D400001208DF8040000218DF8061003218DF894
:100D500005108DF807006946014800F083FE1CBDB0
:100D6000000002402DE9FE4F0024D8B3D1B3CAB32E
:100D7000C3B3401E491EC7B2CEB2521E5B1E02F064
:100D8000FF099DB20121082001F01EFF0121480644
:100D900001F026FF02218DF804104FF0030B4FF0F5
:100DA00000088DF806808DF805B04FF0010ACDF8E7
:100DB00000B08DF807A069464D4800F053FE0922A7
:100DC00000214B4800F08AFE09220121484800F02A
:100DD00085FE4848C0F80080016841F001010160CB
:100DE000021D09E0FFE70120BDE8FE8F641CA4B2EC
:100DF000642C01D90220F7E71168C907F6D03D48F5
:100E0000016801600168016001680160016841F0EA
:100E100010010160016801600168016035494346C5
:100E20001C31C1F80080D1F80080DDF830C048EAFC
:100E30008C7CC1F800C0D1F800C04CEA07670F6095
:100E40000F6847EA06560E600F6847EA09460E60CB
:100E50000E682E430E60016821F0010101604FF61B
:100E6000F07005E0641CA4B2844201D90320BBE702
:100E70001168C907F6D12048016841F001010160FD
:100E80001D491C310A6822F001020A601A4A0C321C
:100E9000146844F001041460021D14681460164ABA
:100EA000143214681460144A40321360121D136027
:100EB0000A6842F001020A60016803600D481430BC
:100EC000016841F00201016014208DF808008DF8DE
:100ED00009A08DF80AB08DF80BA002A801F05CFB08
:100EE00001220221034800F06FF900207CE7000096
:100EF000000C0240006400400066004010B588B05D
:100F000002A907A8CDE9000106AB05AA04A90020A3
:100F100000F06CF80498A0F5807181394BD1284914
:100F200001209FED2D1A0870264900202E4C0870D4
:100F30002549087025490870254908702549087019
:100F40009DF809009DF8081000EB012000B200EEAA
:100F5000100A2248F8EEC00A80EE810A80ED000AED
:100F60009DF80B009DF80A1000EB012000B200EE86
:100F7000900A1B48F8EEE00AC0EE811AC0ED001A94
:100F80009DF80D009DF80C1000EB012000B200EE62
:100F9000900A1449F8EEE01A09780229C1EE810A94
:100FA0000BD04FF47A7190FBF1F000EE100AB8EE1E
:100FB000C00A84ED000A08B010BD03F0D7FAF8E7C4
:100FC0002F0100202C0100202E0100202D010020E7
:100FD000680100206901002000007A4448010020D7
:100FE0004C0100201D01002050010020F0B5224CD2
:100FF000DDE9057504EB0014D4F8B06516F00406BD
:101000001670D4F8B02532D0D2080A60D4F8B015E2
:1010100001F002011970D4F8B41501F00F01397014
:10102000D4F8B8152970D4F8B815090A6970D4F83D
:10103000B815090CA970D4F8B815090EE970D4F8E0
:10104000BC152971D4F8BC15090A6971D4F8BC150E
:10105000090CA971D4F8BC15090EE97148B1012831
:1010600004D10648016841F020010160F0BD520D35
:10107000CBE70248001FF5E7006000401064004025
:1010800038B50024009108232246214600F014F8C8
:10109000054640F6FF7301E0641CA4B2284600F048
:1010A00061F8072801D09C42F6D39C4201D301206D
:1010B00038BD002038BD0000F0B506462748059D24
:1010C0000468640101D5002008E00468240101D50A
:1010D000012003E00068C0003CD50220204C00271E
:1010E00004EB0014C4F8807599B3F600D4F8807549
:1010F0003743C4F88075D4F8806546EA8101C4F8A6
:101100008015D4F8801541EA4201C4F88015D4F85E
:10111000842503F00F0122F00F02C4F88425D4F8CF
:1011200084250A43C4F884252979D5F8052041EAA5
:101130000221C4F88C152978D5F8012041EA022152
:10114000C4F88815D4F8801541F00101C4F8801561
:10115000F0BD01E0FF20FBE77605C7E7086400402B
:1011600000600040174928B1012810D002281BD088
:101170000520704708680A6800F0010002F00202CA
:101180000243086800F0806042EA10607047086817
:101190000A6800F0010002F002020243086800F051
:1011A000006042EA5060704708680A6800F0010079
:1011B00002F002020243086800F0805042EA9060A8
:1011C0007047000008640040002A426901D00A43C9
:1011D00000E08A43426170477CB5144C00206D46A4
:1011E000215C2954401CC0B20828F9D3294640F29A
:1011F0000110FFF745FF00202118097A2954401CEF
:10120000C0B20828F8D369464FF48170FFF738FF61
:1012100000202118097C2954401CC0B20828F8D3AA
:10122000694640F20310FFF72BFF7CBD3A06002011
:1012300030B503460020012908D10022094C03E003
:10124000A55C6840521CD2B29A42F9D3002908D159
:10125000044A323203E0545C6040491CC9B29942EE
:10126000F9D330BD3A060020704700002DE9F04761
:101270002DED0E8BF0EE418AB0EE408AB0EE0CEA16
:10128000FD4BDFF8F883FE4E1878FE4FB8EE0CCA1F
:101290009FEDFDDBDFEDFECAFE4AFF4DFF4CB6EED3
:1012A00000AA08B1012810D1B0EE681AB0EE480AC1
:1012B00001F0C0FEFA4890ED008A90ED019AD0ED61
:1012C000028A187868B3012852D0C0B202287CD0B4
:1012D000032803D0042879D0052878D192ED000A9C
:1012E000B0EE4E1A68EE800AB0EE480A00EECA0A66
:1012F00000EE8A8AF0EE4C0A85ED020A84ED028A3D
:1013000006F005FC85ED020A94ED020AB0EE4E1AD5
:10131000F0EE4C0A06F0FBFB84ED020AC6ED02CAB1
:10132000B8E098ED000A92ED001A79EE080A30EE66
:10133000010A38EE491AF0EE601A48EEC00A48EE8B
:10134000801AC5ED020AB0EE602AF0EE410A08EEFE
:10135000801A48EEC00AB0EE420AC4ED020AC6ED99
:10136000021A87ED021AB0EE4E1AF0EE4C0A76E140
:10137000DFF83083F0EE490A98ED000A40EE280AC3
:1013800020EE280A10EE100AC5ED020A08F054FDFE
:1013900069EE0AEA41EC1B0B1EEE900A08F04CFDC8
:1013A00041EC1A0B18EE100A08F046FD41EC190B3F
:1013B000B0EE4D0AF0EE6D0A04F006F99FEDBA1B8F
:1013C00051EC100B53EC112B02E069E02DE163E0CE
:1013D00008F03CFA53EC192B08F038FA53EC1A2BAE
:1013E00008F040FC53EC1B2B07F086FF07F052FF80
:1013F000A06098ED000A20EE280A10EE100A08F00E
:101400001BFD41EC190B1EEE900A08F015FD41EC96
:101410001A0B18EE100A08F00FFD41EC180BB0EE95
:101420004D0AF0EE6D0A04F0CFF89FEDA11B51ECD0
:10143000100B53EC112B08F009FA53EC182B08F0A1
:1014400005FA53EC1A2B08F00DFC53EC192B07F09E
:1014500053FF07F01FFFB06095ED020AB0EE4E1A81
:10146000F0EE4C0A06F053FB85ED020A94ED020AF9
:10147000B0EE4E1AF0EE4C0A06F049FB84ED020A7B
:1014800096ED020AB0EE4E1AF0EE4C0A06F03FFB63
:1014900086ED020AC7ED02CABDEC0E8BBDE8F087EF
:1014A000DFED85AA92ED000A914620EE0A0A10EEC1
:1014B000100A08F0C1FC41EC190B18EE900A08F074
:1014C000BBFC41EC100B04F0BFF8B0EE40BAF0EEFC
:1014D00060BAD8F8000008F0AFFC53EC1B2B07F003
:1014E000C7FF53EC192B08F0BDFB07F0D3FE02EE4B
:1014F000100A9FED721ADFED720AB0EE680A06F06C
:1015000006FBB5EEC00AF0EE408AF1EE10FA16D0F6
:1015100099ED000AF0EE420A40EE4A0A60EE880AAF
:1015200080EE821AF0EE420A40EE0A0A20EE880AA5
:10153000C0EE020A85ED021AC4ED020A03E085ED51
:10154000028A84ED028A9FED5F0A28EE800A10EE7F
:10155000100A08F071FC41EC1B0B18EE900A08F021
:101560006BFC41EC100B9FED581B03F005FA9FED4F
:10157000581B51EC100B53EC112B08F067F941ECA0
:10158000190B18EE900A08F057FC41EC100BB0EE66
:101590004D1AF0EE6D1A03F0EFF99FED4F1B51EC71
:1015A000100B53EC112B08F051F953EC192B07F0E9
:1015B000A3FE53EC1B2B08F055FB9FED491B53EC8E
:1015C000112B07F099FE07F065FE00EE100ADFED23
:1015D000460A70EE600A9FED450A454BB0EE4E1A82
:1015E00000EEAA0AF0EE4C0ABDEEC00A83ED000A36
:1015F00095ED020A06F08BFA85ED020A94ED020AD7
:10160000B0EE4E1AF0EE4C0A06F081FA84ED020AB2
:10161000C6ED02CAC7ED02CA40F698024FF44871FF
:10162000186806F084FA186036E792ED000AD8EDE3
:10163000000AB0EE4E1A30EE200A60EE280AB0EE34
:10164000480A00EECA0A00EE8A8AF0EE4C0A85EDDE
:10165000020A84ED020A86ED028A87ED028A06F00C
:1016600056FA85ED020A94ED020AB0EE4E1AF0EE3B
:101670004C0A06F04CFA3DE01D01002060010020FC
:101680000C5A0020205A00200000000000000840F2
:10169000000000005C010020E4590020F8590020FF
:1016A000D859002064010020000000000000E0BFC5
:1016B000000000000000E03FD7231F440AD7A33EEC
:1016C00048E1FABEE5D0E23F000000000000004023
:1016D00000000000D34DF43F000000809318E4BFE9
:1016E00000000000022BF93F4C37C93F0080BB448B
:1016F0004401002084ED020A96ED020AB0EE4E1A73
:10170000F0EE4C0A06F003FA86ED020A97ED020AA3
:10171000B0EE4E1AF0EE4C0A06F0F9F987ED020A27
:10172000BAE600001CB50121082001F04DFA08209E
:10173000009000208DF8040003208DF805000120A2
:101740008DF807006946024800F08CF91CBD0000C6
:10175000000C0240F0B5012189B0084601F040FAC2
:101760000121032001F030FA03258DF805500226EF
:101770004FF400408DF8046001242B4F00908DF849
:1017800006408DF807406946384600F06BF98DF841
:1017900005508DF804608DF806408DF8074008204C
:1017A000224C00906946204600F05CF901220F218E
:1017B000384600F093F901220321204600F08EF90B
:1017C00002A802F053FB00244FF6FF70ADF808406A
:1017D00003907507ADF81040ADF80A4002A92846FD
:1017E00002F006FB00231A460321284602F019F9ED
:1017F00005A802F099F9ADF81C4005A9284602F0A9
:101800003DF90121284602F0F1F80122114628464F
:1018100002F092F90021284602F0C0FA0121284680
:1018200002F0EAF809B0F0BD0000024000040240F6
:1018300030B589B00121022001F0D2F90121022046
:1018400001F0C2F93020039003208DF8110002202E
:101850008DF8100001208DF81200224C8DF8130035
:1018600003A9204600F0FEF802220421204600F0E1
:1018700035F902220521204600F030F9684602F0D1
:10188000F5FA00244FF6FF70174DADF800400190B7
:10189000ADF80840ADF802406946284602F0A8FAC3
:1018A00000231A460321284602F0BBF805A802F0DF
:1018B0003BF9ADF81C4005A9284602F0DFF80121EC
:1018C000284602F093F801221146284602F034F926
:1018D0000021284602F062FA0121284602F08CF825
:1018E00009B030BD000402400004004030B589B0AA
:1018F0000121042001F074F90121022001F064F9B2
:10190000C020039003208DF8110002208DF81000F4
:1019100001208DF81200224C8DF8130003A92046F7
:1019200000F0A0F802220621204600F0D7F802229B
:101930000721204600F0D2F8684602F097FA00240A
:101940004FF6FF70174DADF800400190ADF808401C
:10195000ADF802406946284602F04AFA00231A46CA
:101960000321284602F05DF805A802F0DDF8ADF885
:101970001C4005A9284602F081F80121284602F002
:1019800035F801221146284602F0D6F800212846F3
:1019900002F004FA0121284602F02EF809B030BD09
:1019A000000402400008004030B589B00121082041
:1019B00001F016F90121084601F006F9274C022230
:1019C0000021204600F08AF802220121204600F082
:1019D00085F802218DF811108DF8101001210320D7
:1019E0008DF8121003908DF8131003A9204600F013
:1019F00039F8684602F03AFA00244FF6FF70184DA5
:101A0000ADF800400190ADF80840ADF802406946DD
:101A1000284602F0EDF900231A460321284602F079
:101A200000F805A802F080F8ADF81C4005A928468A
:101A300002F024F80121284601F0D8FF01221146C6
:101A4000284602F079F80021284602F0A7F9012182
:101A5000284601F0D1FF09B030BD0000000002406F
:101A6000000C0040F0B5002201274FF0030C0B687A
:101A700007FA02F52B40AB422CD1066853000CFA52
:101A800003F4A64306600E79D0F800E09E4046EAD3
:101A90000E0606600E79012E01D0022E12D1866844
:101AA000A64386604E79D0F808E09E4046EA0E06CE
:101AB00086604668AE43466045688E799640B6B209
:101AC00035434560C568A543C560CC799C40C36873
:101AD0001C43C460521C102AC9D3F0BD4B07DB0E57
:101AE0009A40C90810B500EB8100016A0F249C40A0
:101AF000A1430162016A1143016210BD0183704775
:101B000010B50A4C0146072301222046FEF7D4FEF9
:101B10002046FEF70BFF02212046FEF7A0FE00281C
:101B2000F9D02046BDE81040FEF796BE00200140E7
:101B300010B50A4C0146072301222046FEF7BCFEE1
:101B40002046FEF7F3FE02212046FEF788FE00281D
:101B5000F9D02046BDE81040FEF77EBE00210140CE
:101B600010B5022001F0B6F8264C2060032001F0E9
:101B7000B1F86060042001F0ADF8A060052001F02C
:101B8000A9F8E060D4ED010AA16894ED000AF8EE2E
:101B9000E02A494200EE901A4042B8EEC00AB8EE80
:101BA000E02A00EE900A9FED181A1848F8EEE01AA5
:101BB00060EE010A90ED000A154862EE812A20EEDF
:101BC000803AD0ED000A22EE012A62EE802AC3EEAE
:101BD000203A22EE002A21EE811A0E4821EE000A58
:101BE00082EEA03AC0ED003A0B48C2EE202A80ED0A
:101BF000003A0A4880EE201AC0ED002A084880ED1D
:101C0000001A10BD345A00200000C84258010020BC
:101C100054010020E4590020F85900200C5A0020FB
:101C2000205A00202DE9F04100250E4607462C469B
:101C300008E03846FFF764FF0544052004F0A8FBE0
:101C4000641CE4B2B442F4D3B5FBF6F080B2BDE854
:101C5000F081000010B50820FFF76AFF07F0A6FD2D
:101C60009FED0E1B53EC112B07F0F0FD9FED0D1BAC
:101C700053EC112B07F0EAFD9FED0C1B53EC112BDD
:101C800007F0E4FD9FED0B1B53EC112B07F0DEFD7D
:101C900007F000FB00EE100A10BD000066666666E5
:101CA00066660A4000000000000026400000008038
:101CB00014AEEF3F000000000000303FFEE70000E0
:101CC00070B50D4C0025C4F8A8520C48016821F4E9
:101CD00040010160016841F480010160C4F8AC5228
:101CE000012004F52A7404F06FFB0120206004F049
:101CF0006BFB256070BD0000008040420004024084
:101D00001CB50121022000F05FFF4FF44060012468
:101D100000908DF8044000208DF8060003208DF817
:101D200005008DF8074069460448FFF79BFE04480C
:101D3000C0F8A842C0F8AC421CBD0000000402403C
:101D40000080404270B50D4C0026C4F8A8620C48D3
:101D5000016821F440010160016841F480010160E3
:101D60000125C4F8AC52284604F52A7404F02CFB73
:101D70002560012004F028FB266070BD00804042F1
:101D8000000402402DE9F04781461848002501680B
:101D900021F44001016001680160154E2C462F4678
:101DA0004FF00108C6F8A872012004F00DFBC6F838
:101DB000A8826806D6F82C12000E11B140F0010579
:101DC00001E020F00105012004F0FEFA641CE4B2F9
:101DD000082CE7D3B9F1000F04D0FFF7B3FF284672
:101DE000BDE8F087FFF76CFFF9E700000004024050
:101DF0000080404270B50D46044600F01BF82046B6
:101E000000F0B0F800F05EF8284600F0ABF800F003
:101E100059F800F00FF844F0010000F0A3F800F0CA
:101E200051F80120FFF7AEFF044600F02BF82046E2
:101E300070BD000070B51148016821F440010160D7
:101E4000016841F4800101600D4C0120C4F8AC022E
:101E5000D4F82C1200290FD0C4F8A80204F0B4FA68
:101E60000025C4F8AC52D4F82C02002804D101207B
:101E700004F0AAFAC4F8A85270BD000000040240A1
:101E8000008040420D4810B5016821F44001016016
:101E9000016841F480010160094C0020C4F8A802E7
:101EA000C4F8AC02012004F52A7404F08DFA012074
:101EB00020606060BDE8104004F086BA0004024073
:101EC0000080404270B512480024016821F44001AE
:101ED0000160016801600F4D0126C5F8AC62304613
:101EE00004F072FAC5F8A86207E0641CE4B2322C70
:101EF00003D9FFF7C7FF002070BD012004F064FA8A
:101F0000D5F82C020028F0D1C5F8A802012070BD38
:101F100000040240008040422DE9F0411D46144675
:101F20000F468046069EFFF765FF621CFF21C4F145
:101F3000080301FA02F22B445B1ED9400A43C5F1A3
:101F400008018E40D2B2F1B2C4F10703D94010406B
:101F500040EA01023946404600F034F80120BDE86D
:101F6000F08100002DE9F04105461448016821F494
:101F700040010160016841F480010160104E0027BA
:101F8000C6F8A8723C464FF00108E809C6F8AC0252
:101F90006806050E012004F017FAC6F8A882012091
:101FA00004F012FAC6F8A872012004F00DFA641CBD
:101FB000E4B2082CE9D3BDE8F0810000000402403F
:101FC0000080404270B515460E460446FFF732FFCA
:101FD0002046FFF7C7FFFFF775FF3046FFF7C2FF48
:101FE000FFF770FF2846FFF7BDFFFFF76BFFFFF716
:101FF00049FF012070BD0000174830EEC00A1749A4
:10200000D0ED060A174A91ED001A70EE600A1449E5
:1020100060EE810A91ED001A41EE000A90ED051A7A
:1020200070EE810A10EE901AC0ED050A914203DDB0
:10203000DFED0D0AC0ED050A10EE901A0B4A914231
:1020400003D9DFED0B0AC0ED050A80ED060ABDEEEF
:10205000E00A10EE100A70477001002024010020F1
:10206000280100200078824600788246007882C6E7
:10207000007882C6174830EEC00A1749D0ED090A29
:10208000174A91ED001A70EE600A144960EE810A59
:1020900091ED001A41EE000A90ED081A70EE810AE7
:1020A00010EE901AC0ED080A914203DDDFED0D0A33
:1020B000C0ED080A10EE901A0B4A914203D9DFEDE9
:1020C0000B0AC0ED080A80ED090ABDEEE00A10EE29
:1020D000100A704770010020240100202801002010
:1020E0000078824600788246007882C6007882C6F0
:1020F000174830EEC00A1749D0ED0C0A174A91ED87
:10210000001A70EE600A144960EE810A91ED001A1F
:1021100041EE000A90ED0B1A70EE810A10EE901A53
:10212000C0ED0B0A914203DDDFED0D0AC0ED0B0A95
:1021300010EE901A0B4A914203D9DFED0B0AC0ED65
:102140000B0A80ED0C0ABDEEE00A10EE100A704793
:102150007001002024010020280100200078824620
:1021600000788246007882C6007882C6174830EE32
:10217000C00A1749D0ED0F0A174A91ED001A70EE08
:10218000600A144960EE810A91ED001A41EE000ADE
:1021900090ED0E1A70EE810A10EE901AC0ED0E0A44
:1021A000914203DDDFED0D0AC0ED0E0A10EE901A2C
:1021B0000B4A914203D9DFED0B0AC0ED0E0A80ED08
:1021C0000F0ABDEEE00A10EE100A70477001002001
:1021D00024010020280100200078824600788246F1
:1021E000007882C6007882C61CB50121102000F05C
:1021F000EBFC00218DF80410032101208DF805105F
:1022000000908DF8070069460148FFF72BFC1CBDC4
:102210000010024010B5322003F0F4FE02280BD16A
:10222000074906480A68026089888180064905488E
:102230000A6802608988818010BD0000D8010020F2
:10224000DE010020E4010020EA0100207CB501212C
:10225000084600F0B9FC01208DF8040000228DF83A
:10226000062003218DF80510074D4FF480548DF89A
:102270000700009469462846FFF7F4FB21462846EC
:10228000FFF73CFC7CBD00000000024000EE900A1D
:1022900041421E4AB8EEE01A00EE901A00B592EDE7
:1022A000010AF8EEE00A05F032FC00EE900A82ED39
:1022B000010A174AB8EEE01A00EE901A92ED010AF0
:1022C000F8EEE00A05F023FC00EE900A82ED010A28
:1022D000104AB8EEE01A00EE901A92ED010AF8EEFC
:1022E000E00A05F014FC00EE900A82ED010A0A4AA9
:1022F000B8EEE01A00EE901A92ED010AF8EEE00A4C
:1023000005F005FC82ED010A00BD0000E459002043
:10231000F85900200C5A0020205A0020BC2801D374
:10232000012210E0622801D302220CE02A2801D306
:10233000032208E0142801D3042204E00A2801D370
:10234000052200E006221A21D020FFF73BBE10B57F
:1023500004464FF47A70844201D9044602E0042C0A
:1023600000D20424B0FBF4F0401EC2B21921D020E8
:10237000FFF728FE6008BDE81040FFF7CFBF10B59B
:1023800080226B21D020FFF71DFEC82004F000F84A
:1023900000226B21D020FFF715FE012000F03AF853
:1023A000002000F02EF83220FFF7D1FF0022382164
:1023B000D020FFF707FE00226A21D020FFF702FE9F
:1023C00000222321D020FFF7FDFD80223721D020DD
:1023D000FFF7F8FD7521D020FFF70CFD682801D02C
:1023E000012010BD01226B21D020FFF7EBFD002260
:1023F0006C21D020FFF7E6FD3220FFF7A8FF002078
:1024000010BD08B50223009004221C21D020FFF744
:1024100083FD08BD08B50223009004221B21D020B3
:10242000FFF77AFD08BD000008B504F0C5F80D4CB3
:102430004FF4FA7500900A21684605F01DFF2068E8
:10244000A8420ADA401C2060606820612089A082CE
:10245000D4F80A00E061E089208400F049F800F037
:1024600003F8E8E7C801002070B53C21D020FFF751
:10247000C1FC04463B21D020FFF7BCFC04EB00204C
:102480001A4C3E212080D020FFF7B4FC05463D21A8
:10249000D020FFF7AFFC05EB002060804021D0206A
:1024A000FFF7A8FC05463F21D020FFF7A3FC05EB72
:1024B000002000B2A4F10A01A0800968B1F5FA7FFA
:1024C00012DB04F118032188198062885A809880F1
:1024D0009B1F1D88491B21805988511A618099884A
:1024E000401A00F58040A08070BD0000D20100209D
:1024F00070B54421D020FFF77DFC04464321D02055
:10250000FFF778FC04EB00201F4C46212080D020F0
:10251000FFF770FC05464521D020FFF76BFC05EB6B
:10252000002060804821D020FFF764FC0546472149
:10253000D020FFF75FFC05EB002000B2211FA08038
:1025400009684FF4FA75114A114BA94203DA0120C8
:102550001860107070BDA94201D1002111704FF4B4
:1025600096711960084B21881233198062885A804D
:1025700098809B1F1D88491B21805988511A6180B2
:102580009988401AA08070BDCC0100201C01002059
:1025900034000020FEE7704730B50F23C278017881
:1025A0000125FAB1144A126801F1E02102F4E06257
:1025B000C2F5E062C2F30722C2F10404D3404278BC
:1025C000A24084781C401443220181F80024007842
:1025D00000F01F018D404009800000F1E020C0F8AC
:1025E000005130BD01F01F0085404809800000F116
:1025F000E020C0F8805130BD0CED00E002490843F6
:1026000002490860704700000000FA050CED00E088
:1026100010B40021084B0A46002003EBC004401C04
:10262000C0B262548028F8D3491CC9B20829F3D338
:1026300010BC00F0B9B80000F001002010B57F28F0
:1026400016D83F2914D80723A3EBD10301F00701C3
:10265000C1F107040121A140064CDBB204EBC0002C
:10266000002AC25CC9B201D00A4300E08A43C254C6
:1026700010BD0000F00100207CB50121082000F011
:10268000A3FA01268DF8046000244FF4F0408DF881
:10269000064000908DF805408DF807406946404897
:1026A000FFF7E0F90121080700F09AFA012000F095
:1026B00085FA002000F000FB002000F07FFA394D81
:1026C000C5F8B042642005F52C7503F061FE2E605C
:1026D0000021AE2000F02AF90021D52000F026F9D3
:1026E0000021502000F022F90021A82000F01EF95E
:1026F00000213F2000F01AF90021D32000F016F944
:102700000021084600F012F90021402000F00EF9E7
:1027100000218D2000F00AF90021142000F006F9B4
:102720000021202000F002F90021022000F0FEF834
:102730000021A12000F0FAF80021C02000F0F6F8F6
:102740000021DA2000F0F2F80021122000F0EEF86B
:102750000021812000F0EAF80021EF2000F0E6F8E7
:102760000021D92000F0E2F80021F12000F0DEF88D
:102770000021DB2000F0DAF80021302000F0D6F84C
:102780000021A42000F0D2F80021A62000F0CEF80D
:102790000021AF2000F0CAF8FFF73AFF7CBD00002F
:1027A000000C02400080414270B5104E002505F13A
:1027B000B000C0B2002100F0B9F80021084600F0D6
:1027C000B5F80021102000F0B1F8002406EBC40099
:1027D0000121405D00F0AAF8641CE4B2802CF5D31E
:1027E0006D1CEDB2082DE2D370BD0000F001002099
:1027F0002DE9F04F203A98460D468346894602F06F
:10280000FF0A00262EE0B8F10C0F08D0174901EBA3
:102810000A100027845D200607D5099A08E01449AC
:102820000AEB4A0001EB8000F3E7099890B100221F
:1028300029465846FFF702FF6D1C6006EDB2040EF4
:10284000A5EB0901414507D10BF101004D4600F010
:10285000FF0B05E00122EBE77F1CFFB2082FDAD364
:10286000761CF6B24645CED3BDE8F08F92A40008A0
:102870001EA000082DE9FF4F81B00027DDF838B019
:102880001D46924680463C464FF001094FEA5B06E2
:1028900027E0281B401EC1B20A2003F0B7FEBAFB96
:1028A000F0F00A21B0FBF1F201FB120027B9691E1A
:1028B0008C4201DA48B101273030C2B206FB0480F5
:1028C000C0B25B46CDF8009006E006FB0480C0B2C3
:1028D0005B462022CDF800900299FFF789FF641C27
:1028E000E4B2AC42D5D305B0BDE8F08FF8B51646DA
:1028F0000D460446012714E07A2C02D90024103535
:10290000EDB23A2D03D900242546FFF781FE00974A
:1029100032780C2329462046FFF76AFF0834E4B2D8
:10292000761C30780028E7D1F8BD000030B50023D0
:102930000E4A012411B1C2F8AC4201E0C2F8AC3237
:102940000021C2F8B832050602D5C2F8B44201E04F
:10295000C2F8B432C2F8B8424006491C000EC9B2EF
:102960000829EED3C2F8AC4230BD000000804142DD
:102970002DE9F84301250746ADF800501B48002615
:102980004670ADF800501A4C80464FF6FF7924E0AF
:10299000BDF80000384202D0C4F8B05201E0C4F8DB
:1029A000B062C4F8A052052003F00EFDC4F8A06286
:1029B000052003F009FDC4F8A052D4F83C0230B160
:1029C00098F80110BDF80020114388F80110BDF8F7
:1029D000001009EA4100ADF80000BDF80000FF2832
:1029E000D6D9BDE8F843102003F0EEBCF005002076
:1029F0000000424210B5154C0020C4F8A802102077
:102A000004F52A7403F0E0FC0120FFF7B1FF432036
:102A1000FFF7AEFF0020FFF7ABFF0120FFF7A8FF95
:102A20000020FFF7A5FF0020FFF7A2FF0020FFF71F
:102A30009FFF0020FFF79CFF0020FFF799FF012078
:102A40002060BDE81040102003F0BEBC00004242F0
:102A500010B5154C0020C4F8A802102004F52A7403
:102A600003F0B2FC0120FFF783FF4320FFF780FF54
:102A70000020FFF77DFF0020FFF77AFF5A20FFF7C5
:102A800077FF5A20FFF774FF5A20FFF771FF5A2093
:102A9000FFF76EFF5A20FFF76BFF01202060BDE8B3
:102AA0001040102003F090BC000042427CB5012190
:102AB000102000F089F84FF40040002400908DF8B9
:102AC000044003208DF805000C4E02258DF80750B8
:102AD00069463046FEF7C6FF01218DF804108DF8D7
:102AE00006404FF4A8508DF8055000908DF807105F
:102AF00069463046FEF7B6FF7CBD0000001002407C
:102B000010B500F00DF800F00BF800F009F8FFF731
:102B100071FF00F027F8BDE81040FFF799BF0000F3
:102B200010B50F4C0020C4F8A802102004F52A7438
:102B300003F04AFC0120FFF71BFF4220FFF718FFBC
:102B40000020FFF715FF0020FFF712FF0020FFF71E
:102B50000FFF01202060BDE81040102003F034BCBE
:102B60000000424210B5144C0020C4F8A802012015
:102B700004F52A74FFF7FCFE4420FFF7F9FE00205D
:102B8000FFF7F6FE0120FFF7F3FE0320FFF7F0FE4C
:102B90000020FFF7EDFE0020FFF7EAFE0020FFF720
:102BA000E7FE0020FFF7E4FE01202060BDE81040B2
:102BB000102003F009BC00000000424201490862F5
:102BC0007047000000000E42044A0029116801D03D
:102BD000014300E08143116070470000303802403B
:102BE000044A0029116801D0014300E081431160CB
:102BF0007047000040380240044A0029116801D0A3
:102C0000014300E0814311607047000044380240F6
:102C1000044A0029116801D0014300E0814311609A
:102C2000704700002438024070B5204B1968204CD2
:102C300011F00C0104D06610042903D0082903D038
:102C400004601BE0066019E0184A121F1168C1F306
:102C50008055116801F03F0115B1B6FBF1F101E0BB
:102C6000B4FBF1F114681268C4F388146143C2F331
:102C70000142521C5200B1FBF2F1016019680F22AF
:102C800002EA11110B4A545C0168E14041601C6882
:102C9000072505EA9424145D21FA04F484601B6876
:102CA00005EA5333D25CD140C16070BD08380240A0
:102CB0000024F40098000020054900220A700A70E0
:102CC000012802D0042801D10520087070470000B7
:102CD000703802400021022807D003280BD00428B6
:102CE0000BD005280BD0002070474FF08042506A6F
:102CF000516200B27047044A02E0044A00E0044A0C
:102D00001068116000B2704724040040240800409D
:102D1000240C004010B551EC100B2DED068BB0EEDD
:102D2000439AF0EE629AB0EE42AAF0EE618AB0EEFB
:102D3000418A06F0AFFABDEECA0A154910EE102A14
:102D4000BDEEE90A086081ED018A10EE103AC1ED8E
:102D5000058AC1E9022381ED049A9900514300EEEE
:102D6000101A0C49B8EEC00A81ED000A9FED0A0A5C
:102D70000A4929EE000A81ED000A0949086009485C
:102D800080ED008A0848C0ED008ABDEC068B10BDBE
:102D9000445A002054010020DB0F49405801002014
:102DA0005C010020600100206401002070B53E4CF1
:102DB0004FF4AD700A2120600920FEF733FF21682F
:102DC0003A4C90FBF1F0C0B22070052801D90520E3
:102DD0002070C0B29FED361A9FED363A06281DD2FC
:102DE000DFE800F0031029343D48F0EE411A9FED72
:102DF000323AF2EE0A2AB3EE0E2A9FED301A9FED18
:102E0000300B09E09FED303AF2EE0A2AB3EE0E2ABB
:102E1000DFED2E1A9FED2E0BFFF77CFF25780422A5
:102E200008242D482D490723062D38D2DFE805F068
:102E30002D3038383438F0EE411AF2EE0A2AB3EE6B
:102E40000E2A9FED271A9FED270BE5E7F2EE0A2ADF
:102E5000B3EE0E2AF0EE411A9FED240BDCE7F0EE04
:102E6000411AF2EE0A2AB3EE0E2A9FED221A9FEDC6
:102E7000220BD1E79FED223AF2EE0A2AB3EE0E2A98
:102E8000F0EE411A9FED1F0BC6E704600E2005E02F
:102E9000062202600A2001E004600B20086070BD79
:102EA00002600B6070BD0000400100201D01002089
:102EB00000000000B81E853D0AD7A33D7B14AE3D3F
:102EC000022B8716D9CEB73F8FC2753D643BDF3DDD
:102ED0000000000000000000380100203C0100203C
:102EE000BC74133E000000806ABCC43F000000A018
:102EF000EFA7C63FE926313E000000C09DEFC73F67
:102F0000C520303D000000E07A14CE3F0CB5002211
:102F1000274900920192086840F4803008604FF41D
:102F2000A043086800F4003001900098401C009015
:102F3000019810B900989842F3D10868800334D5FD
:102F4000012001901A484030026842F0805202602D
:102F50001848026842F4404202601548083002688E
:102F60000260026842F400420260026842F4A05229
:102F70000260031F104A1A600A6842F080720A60F9
:102F80000A689201FCD50D4940F205720A60016899
:102F900021F003010160016841F002010160016854
:102FA000C1F381010229FAD10CBD01920CBD0000D0
:102FB000003802400070004008544007003C0240C6
:102FC000F0B5174E174F059D44F29F14002803DA01
:102FD00034602044386002E03C60201A30601248BF
:102FE000002903DA44632144816302E08463611AA7
:102FF00041630E48002A03DA84631119416302E039
:103000004463A11A8163002B03DA04641919C163B4
:1030100002E0C463E11A016405480560F0BD0000E8
:103020003444014034480140004001400000014068
:103030003818004000B5B0EE412AF0EE602AB0EE3C
:10304000401A9FED490A4948D0ED001ADFED480AC1
:10305000B5EEC01AF1EE10FA02DD71EE801A0EE044
:10306000B5EEC01AF1EE10FA02D271EEC01A06E007
:10307000B5EEC01AF1EE10FA03D161EEA01AC0ED60
:10308000001A3A49F5EEC02AD1ED011AF1EE10FA14
:1030900002DD71EE801A0EE0F5EEC02AF1EE10FAB4
:1030A00002D271EEC01A06E0F5EEC02AF1EE10FA77
:1030B00003D161EEA01AC0ED011A2C49B5EEC02A69
:1030C000D1ED021AF1EE10FA02DD31EE800A0EE0C7
:1030D000B5EEC02AF1EE10FA02D231EEC00A06E0D7
:1030E000B5EEC02AF1EE10FA03D121EEA00A80ED70
:1030F000020AB0EE410A03F04BFAF0EE400AB0EEDD
:10310000410A03F045FAF1EE401AB0EE601A90ED74
:10311000000AF0EE610A04F0FAFC80ED000AB0EE5D
:10312000620A03F035FAB0EE401AB0EE620A03F01C
:103130002FFAF1EE400A90ED010A04F0E8FC80ED70
:10314000010AB0EE420A03F023FAB0EE401AB0EEE4
:10315000420A03F01DFAF1EE400A90ED020A04F073
:10316000D6FC80ED020A00BD0AD7233CD8590020C6
:103170006666663F4FF0E0210428086903D020F01E
:1031800004000861704740F00400FAE710B505F04C
:1031900019FE012803D0BDE8104005F007BB10BDA3
:1031A000124810B5016841F47001016010480168CF
:1031B00041F0010101600E4A0021083211600268ED
:1031C0000C4B1A400260031D0B4A1A60026822F47D
:1031D0008022026006480C300160FFF797FE034929
:1031E0004FF000608039086010BD000088ED00E0FD
:1031F00000380240FFFFF6FE1030002470B5048C4A
:1032000024F001040484058B048C4FF6FF7606EA53
:103210000313134325F0F3052B4324F00A020A435A
:1032200042F001010383018470BDF0B5048C24F0E9
:1032300010040484078B068C4FF6FF7404EA011512
:1032400027F4734704EA0331394304EA02220A43AC
:1032500026F0A001294341F0100102830184F0BD52
:103260002DE9F041884607468AB001210220FFF788
:10327000ABFC01214804FFF7BFFC1F4E03220821CD
:103280003046FEF72BFC02208DF804000024C0011C
:103290008DF80640012500908DF8075003208DF829
:1032A000050069463046FEF7DDFB144EADF8088098
:1032B0000397ADF81040ADF80A4002A9304600F07F
:1032C00097FD6020ADF81400ADF81650ADF8204021
:1032D00005A9304600F038FC0821304600F06AFCB1
:1032E0000121304600F078FB0121304600F084FBDC
:1032F0000AB0BDE8F0810000000402400044014033
:103300002DE9F041884607468AB001210220FFF7E7
:103310005BFC01218804FFF76FFC214E0322092189
:103320003046FEF7DBFB02208DF80400002400028B
:103330008DF80640012500908DF8075003208DF888
:10334000050069463046FEF78DFB164EADF8088045
:103350000397ADF81040ADF80A4002A9304600F0DE
:1033600047FD6020ADF81400ADF81650ADF82040D0
:1033700005A9304600F0E8FB0821304600F01AFCB1
:103380000121304600F042FB0121304600F024FBD1
:103390000121304600F030FB0AB0BDE8F0810000AA
:1033A00000040240004801402DE9F04188460646ED
:1033B0008AB001214020FFF713FC01210220FFF712
:1033C00003FC02208DF818004FF4404005900320C4
:1033D0008DF819000024204F8DF81A4001258DF832
:1033E0001B5005A93846FEF73DFB09220E21384641
:1033F000FEF774FB09220F213846FEF76FFB089693
:10340000164EADF81C80ADF82440ADF81E4007A95B
:10341000304600F0EDFC6020ADF80000ADF8025041
:103420000294ADF80C40ADF810406946304600F00B
:103430008BFB6946304600F0C3FB0821304600F0A4
:10344000B9FB0821304600F005FC0121304600F0B0
:10345000D3FA0AB0BDE8F081000402400018004031
:103460002DE9F0418846074601218AB00846FFF75A
:10347000C3FB01211020FFF7A7FB354E01220921D4
:103480003046FEF72BFB01220B213046FEF726FBD0
:1034900001220D213046FEF721FB01220E2130468C
:1034A000FEF71CFB4FF4D440059002208DF8180065
:1034B00003208DF8190000248DF81A4001258DF89D
:1034C0001B5005A93046FEF7CDFA224EADF81C8000
:1034D0000897ADF82450ADF81E4007A9304600F01B
:1034E00087FC6020ADF80000ADF80250ADF80C404C
:1034F0006946304600F028FB6946304600F060FB24
:103500006946304600F0B0FB6946304600F0FAFBF1
:103510000121304600F07AFA0821304600F04AFBDB
:103520000821304600F096FB0821304600F0E4FB0D
:103530000821304600F020FC0121304600F04CFA12
:103540000121304600F058FA0AB0BDE8F0810000D1
:1035500000100240000001404FF08040018A018AC3
:1035600021F001010182704703480188018821F0A0
:1035700001010180704700001004004003480188E9
:10358000018821F00101018070470000100800400F
:1035900003480188018821F0010101807047000083
:1035A000100C004003480188018821F001010180CE
:1035B00070470000101800402DE9F0478E490024A4
:1035C0004FF4FA758869B0F5C86F12DD8B48027840
:1035D0007AB98B4A1268AA420BDB01220270894831
:1035E00004708948047089480470894804708948C7
:1035F00004700878884E8846000642F20F772DD472
:103600000221304600F02EFA40B30221304600F08D
:10361000F0F998F80000400630463DD500F01AFA5F
:1036200080B2A8F80600B8F804104246884201D2D9
:10363000576300E05463401A516B08445061516A6B
:10364000401A00D54042A84200DD516150695062E5
:1036500088F800400021304600F0A6FA98F80100F2
:1036600000063AD40421304600F0FCF9A8B3042146
:10367000304600F0BEF998F80100400630464AD5C1
:1036800000F0EAF980B2A8F80A00B8F8081042463B
:1036900088420ED297630DE000F0DCF90146A8F8ED
:1036A000041098F8001041F0400188F80010022141
:1036B000D1E79463401A916B08449061916A401A73
:1036C00000D54042A84200DD91619069906288F87F
:1036D00001400021304600F0B3FA98F802000006DD
:1036E0003AD40821304600F0BDF9A8B3082130468D
:1036F00000F07FF998F80200400630464BD500F004
:10370000ADF980B2A8F80E00B8F80C104246884215
:103710000ED2D7630DE000F09FF90146A8F808101B
:1037200098F8011041F0400188F801100221D1E71A
:10373000D463401AD16B0844D061D16A401A00D5D5
:103740004042A84200DDD161D069D06288F80240D1
:103750000021304600F0C6FA98F80300C146000682
:1037600047D41021304600F07DF9002841D01021C7
:10377000B046304600F03DF999F803004E46400649
:103780002BD5404600F06CF980B27082318A8842B5
:103790000ED237640DE000F061F90146A8F80C1074
:1037A00098F8021041F0400188F802100221D0E799
:1037B0003464401A316C08443062316B401A00D5D1
:1037C0004042A84200DD3162306A3063F47000216B
:1037D0004046BDE8F04700F0C5BA4446404600F018
:1037E0003FF93082F078022140F04000F07020462E
:1037F000EFE7BDE8F08700003C0000202E0100202C
:10380000C80100202D0100202C0100202F010020E4
:103810006801002069010020000401402DE9F04109
:10382000884606468AB001210220FFF7E5F901210A
:103830000420FFF7C9F902208DF818004FF47070CA
:10384000059003208DF8190000242F4F8DF81A40A1
:1038500001258DF81B5005A93846FEF703F9032210
:1038600006213846FEF73AF9032207213846FEF7CB
:1038700035F9032208213846FEF730F903220921E1
:103880003846FEF72BF90896204EADF81C80ADF8AF
:103890002440ADF81E4007A9304600F0A9FA602088
:1038A000ADF80000ADF802500294ADF80C40ADF850
:1038B00010406946304600F047F96946304600F04E
:1038C0007FF96946304600F0CFF96946304600F08E
:1038D00019FA0821304600F06DF90821304600F051
:1038E000B9F90821304600F007FA0821304600F007
:1038F00043FA0121304600F089F80121304600F0FA
:103900007BF80AB0BDE8F0810008024000040140E5
:103910000248018821F00101018070471004014034
:103920002DE9F0438946804601218BB00804FFF75A
:1039300063F901211020FFF747F9254F03220521E4
:103940003846FEF7CBF8032206213846FEF7C6F8C4
:1039500002208DF8180003208DF81900002460263D
:103960008DF81A40012505968DF81B5005A938469B
:10397000FEF778F8174FADF81C90CDF82080ADF821
:103980002440ADF81E4007A9384600F031FAADF8E2
:103990000060ADF80250ADF80C406946384600F0C2
:1039A000D3F86946384600F00BF90821384600F094
:1039B00001F90821384600F04DF90121384600F0A0
:1039C0000BF80121384600F017F80BB0BDE8F08382
:1039D00000100240004001400029018802D041F05F
:1039E000800101E021F0800101807047C94301821C
:1039F0007047C943018270470029018802D041F015
:103A0000010101E021F0010101807047002930F837
:103A1000441F02D041F4004101E0C1F30E010180D6
:103A2000704770B50589048B068C25F007050D439A
:103A30004FF6FC410C4040F201110C434FF6FF7170
:103A400001EA031126F02206114331430581048364
:103A5000018470BD406B7047806B7047C06B7047CE
:103A6000006C704702460020138A92890B4202EADA
:103A7000010202D0002A00D0012070472DE9F04158
:103A80000C460E884988A2882389054616B3042E61
:103A900028D0082E2E8C4FF6FF702BD026F480569F
:103AA0002E84AF8B2E8C00EA022200EA013127F42B
:103AB00073473A4300EA0330104326F420420A4396
:103AC00042F48051A8832984E1882846BDE8F0416A
:103AD00000F082B9FFF792FBE1882846BDE8F0418B
:103AE00000F05EB9FFF7A1FBE1882846BDE8F04190
:103AF00000F05EB926F480762E84AF8B2E8C00EA1F
:103B0000012100EA0310104327F0F307384326F49D
:103B100020620A4342F48071A8832984E188284600
:103B2000BDE8F04100F050B9002101804180012240
:103B30008280C18001817047002A828901D00A43B6
:103B400000E08A438281704730B5028C22F0010286
:103B50000284028C8388048B22F0020224F0730515
:103B60000C882C438D8915434A882A430C4DA84262
:103B700002D00C4DA8420DD122F00805CA8923F4C9
:103B800040732A4322F004058A882A430D8A1D4384
:103B90004B8A2B438380048389684163028430BD50
:103BA0000000014000040140028C22F002020A439E
:103BB00002847047028B22F008020A430283704796
:103BC00070B5028C22F010020284028C8388048B70
:103BD0000D8824F4E6464FF6FF7404EA05253543C4
:103BE0008E8922F0200204EA061616434A8804EA67
:103BF00002123243104EB04202D0104EB04215D1E4
:103C000022F08006CA8923F4406304EA0212324398
:103C100022F040068A8804EA021232430E8A04EA3D
:103C200086061E434B8A04EA83033343838005835D
:103C300089688163028470BD000001400004014076
:103C4000028C4FF6FF7322F0200203EA01111143A8
:103C500001847047028B4FF6FF7322F4006203EA7F
:103C6000012111430183704770B5028C22F48072E8
:103C70000284028C8388848B0D8824F0730425438E
:103C80008E894FF6FF7422F4007204EA062616436A
:103C90004A8804EA02223243104EB04202D0104E4B
:103CA000B04215D122F40066CA8923F4405304EAD5
:103CB0000222324322F480668A8804EA02223243D6
:103CC0000E8A04EA06161E434B8A04EA03133343A2
:103CD000838085838968C163028470BD00000140D0
:103CE00000040140028C4FF6FF7322F4007203EAD5
:103CF0000121114301847047828B22F008020A439C
:103D00008283704770B5028C22F480520284058C45
:103D10008288838B0C8823F4E6464FF6FF7303EA10
:103D20000424344325F400568D8903EA05353543D0
:103D30004E8803EA06362E43084DA84202D0084DAD
:103D4000A84205D122F480450A8A03EA82122A4356
:103D50008280848389680164068470BD000001400C
:103D600000040140028C4FF6FF7322F4005203EA74
:103D70000131114301847047828B4FF6FF7322F4A7
:103D8000006203EA01211143818370474163704758
:103D900081637047C1637047016470474162704737
:103DA000028B22F00C020283028B0A4302837047CB
:103DB000028B22F440620283028B4FF6FF7303EA08
:103DC00001210A4302837047828B22F00C02828316
:103DD000828B0A4382837047828B22F44062828303
:103DE000828B4FF6FF7303EA01210A4382837047F7
:103DF00030B50288164C174DA0420DD0A8420BD00A
:103E0000B0F1804F08D0144B984205D0134B984224
:103E100002D0134B984203D122F070034A881A4310
:103E2000104B984206D0104B984203D022F44073B6
:103E30000A891A4302804A68C2620A880285A0423F
:103E400001D0A84201D1897A01860121818230BD49
:103E50000000014000040140000400400008004050
:103E6000000C004000100040001400404FF0FF31F3
:103E70004160002101800181418081727047000012
:103E80000A2809DB0C48D0F80C0228B10B4800784E
:103E9000012801D000207047094A0120002111604B
:103EA000084A1160084A51639163084A916351635B
:103EB0001164D16370470000008041421C01002062
:103EC00034440140344801400040014000000140BA
:103ED00070B52D4C40F22551204600F0B3FAE8B3FE
:103EE000204600F03DFBC1B228480068B0F5FA7FDB
:103EF00042DB284A264C002590797B29215400D0AA
:103F000060B3401CC0B290710B2835D19571A07A76
:103F10007D2831D100210920FDF78AF9617A884294
:103F20002AD11D4805701D4805701D4805701D48A3
:103F300005701D4805702179E07800F06DFB1B4D80
:103F400085ED000AA179607900F066FB184880EDE4
:103F5000000A217AE07900F05FFB00E00CE01548F0
:103F6000154EF0EE400A0078022807D0217AE07959
:103F700000F052FB86ED000A002070BD95ED000AAE
:103F800000F0F4FAF6E70000005000407401002051
:103F90006C060020800000202C0100202E01002053
:103FA0002D0100202F010020690100204801002080
:103FB0004C0100201D0100205001002070B5314D42
:103FC00040F22551284600F03DFA002853D0002445
:103FD0000126284600F0C4FAC1B22B480068B0F5AB
:103FE000FA7F48DB2A4B294D002218787B29295477
:103FF00000D0E8B3401CC0B218700B283BD11A7037
:10400000A87A7D2837D10020295C401C4C40092823
:10401000FADB687AA04200D056BB1E48017849B945
:10402000012101701C4802701C4802701C4802707B
:104030001C4802702979E87800F0EEFA1A4C84EDF9
:10404000000AA979687900F0E7FA184880ED000ABB
:10405000297AE87900F0E0FA1548164EF0EE400AA9
:104060000078022809D0297AE87900F0D5FA00E032
:1040700001E086ED000A002070BD94ED000A00F01A
:1040800075FAF4E70010014074010020FC050020DF
:1040900080000020680100202D0100202C0100205C
:1040A0002E0100202F010020480100204C0100209B
:1040B0001D0100205001002000B5054B0022985C36
:1040C00003F0AEFE521CD2B2182AF8D300BD000095
:1040D0003A0600202DE9F04140F225512DED048BE8
:1040E000734800F0AFF9002872D07148001D0088B5
:1040F00070490968B1F5FA7F6ADB012100246E4D31
:10410000412810D12A79412A0DD16C4A137853B92C
:104110006B4B1C706B4B1C7011706B4A14706B4AAC
:1041200014706B4A1470C3B26A4A6B4FDFF8ACC1AB
:104130006B4E2B714B2808D0492808D04A2806D04E
:1041400036782EB1012E0BD01EE031700CE03470A9
:10415000A0F14106072E26D9082814DC137013E0BD
:10416000432809D047280BD03C708CF800404128E8
:1041700019D0452817D006E03C708CF8001002E0FA
:1041800039708CF8004014709FED560A564A9FED26
:10419000579A574E58280AD059280DD07B2818D046
:1041A0007D281CD00EE0A0F140061670ECE7D6ED9D
:1041B000000A30EE800A03E0D6ED000A30EEC00AB5
:1041C00086ED000A6878012804D0022809D060E052
:1041D00068E06970A8781354401CA87059E0022068
:1041E0006870D078502806D05078232848D0A87816
:1041F000E87090462AE03F48017041E0A978081A2B
:1042000005F0BDFA41EC110B9FED3B0B00F0B4FB48
:10421000EF78B0EE408A08EB0700F0EE608A10F805
:10422000010C303805F0ABFA53EC182B05F00EFBFF
:1042300041EC180BA86805F0FFFD53EC182B05F0B6
:104240005BF805F027F87F1EA860EF70E878042877
:10425000D4D298F801003038032811D2DFE800F0FA
:1042600002070B0095ED020A86ED000A08E095EDC5
:10427000020A234802E095ED020A224880ED000A76
:104280006C70AC70EC7085ED029A32211648FCF728
:1042900064F996ED000AB5EEC00AF1EE10FA01D20B
:1042A00086ED009A0020BDEC048BBDE8F081000093
:1042B00000440040C8010020800000202D010020A3
:1042C0002C0100202E0100202F0100206801002079
:1042D00069010020300100206A0100206B010020EC
:1042E0006C0100200000C84207060020000000000A
:1042F000200100206D01002000000000000024408B
:10430000240100202801002070B52D4C40F22551D9
:10431000204600F097F800284BD0204600F020F906
:10432000C1B228480068B0F5FA7F42DB274A264C24
:10433000002550797B29215400D0D0B3401CC0B255
:1043400050710B2835D15571A07A7D2831D10021CB
:104350000920FCF76DFF617A88422AD11C4805705C
:104360001C4805701C4805701C4805701C480570E9
:104370001C4805702179E07800F04EF91A4D85ED62
:10438000000AA179607900F047F9184880ED000A29
:10439000217AE07900F040F91548164EF0EE400A17
:1043A0000078022807D0217AE07900F035F986ED0F
:1043B000000A002070BD95ED000A00F0D7F8F6E77E
:1043C00000480040740100206C060020800000209E
:1043D0002C0100202E0100202D0100202F010020A3
:1043E0006801002069010020480100204C010020E4
:1043F0001D0100205001002000B5054B0022985CF3
:1044000003F068FD521CD2B2182AF8D300BD000098
:104410003A06002000B5054B0022985C03F064FDCD
:10442000521CD2B2182AF8D300BD00003A06002070
:104430000029818902D041F4005101E021F40051AA
:104440008181704770B501F01F0501260024C1F37A
:10445000421306FA05F2012B0FD0022B0FD0838AEC
:104460004FEA11210088134206FA01F600EA06001D
:1044700001D000B10124204670BD8389F0E7038A92
:10448000EEE710B5C1F3421301F01F040121A14072
:10449000012B07D0022B07D01430002A026805D068
:1044A0000A4304E00C30F8E71030F6E78A43026074
:1044B00010BD00007FB50446008A0D46C98820F46F
:1044C000405001432182A08941F20C618843A988B0
:1044D0002A8911436A8902431143A181A08A20F4E9
:1044E0004071A8890843A0826846FEF79DFB1A48E0
:1044F000844202D01948844201D1039800E0029816
:10450000A189090400EBC00101EB0010296801D565
:10451000490000E08900B0FBF1F06422B0FBF2F149
:1045200009010B096FF018056B4300EB8300A389A9
:104530001D044FF0320306D503EBC000B0FBF2F0D0
:1045400000F0070005E003EB0010B0FBF2F000F014
:104550000F00084320817FBD00100140001401407E
:104560008088C0F308007047FEE7000010B52DED0D
:10457000048BB0EE608AB0EE409ADFED238AB5EE90
:10458000C08AF1EE10FA3CD0B5EEC09AF1EE10FA06
:1045900037D089EE080A01F0FBFFB4EEE80AF1EE2D
:1045A00010FA0FD8B5EEC08AF1EE10FAB0EE490A53
:1045B00002DD01F0EDFF03E001F0EAFFB1EE400A99
:1045C00080EE288A1148B6EE001A90ED000A1048D5
:1045D000C9EE080A40EE010A90ED001A81EE200AA9
:1045E00010EE100A05F028FC41EC100B00F058F812
:1045F00051EC100B04F04EFE00EE100ABDEC048BE3
:1046000010BD9FED040AF9E73333B33E5C0100208F
:10461000600100200000000070B501EB002004B232
:104620004FF47A7594FBF5F005FB10402DED028BED
:1046300005F0A5F89FED0B1B53EC112B05F006F9C7
:1046400041EC180B94FBF5F005F099F853EC182B9E
:1046500004F052FE04F01EFEBDEC028B00EE100AC8
:1046600070BD0000FCA9F1D24D62503F03B4019827
:104670004100009850EAC12018BF04204A0D18BF1D
:1046800040F0010040F2FF72B2EB515F08BF40F012
:104690000200012808BF052002B07047000000009A
:1046A00070B59B482DED020B2DED068B079D25F077
:1046B0000044A04218DC9748844202DC0AD10698E4
:1046C00040B19DED060BBDEC068B02B0BDE870401D
:1046D00001F052BC002DCCBF9FED8F0B9FED900BD6
:1046E000BDEC068B02B070BD8F48A04215DD8F482F
:1046F000A042D8BF4FF0FF3458DD9DED060B51ECC2
:10470000100BFFF7B3FF042808BF01F069FC9DED13
:10471000060BBDEC068B02B070BD9DED060B51EC97
:10472000100B01F029FFCDE9060181489FED828B36
:10473000A0423CDD8248A0421FDD00249FED82ABF9
:104740009DED060B53EC1A2B51EC100B04F0D4FD2D
:104750009DED060B41EC190B53EC1A2B51EC100B91
:1047600005F074F853EC182B05F07CFA53EC192B78
:1047700004F07EFECDE9060149E09DED060B012423
:1047800053EC182B51EC100B04F0B6FD9DED060B0D
:1047900041EC190B53EC182B51EC100B05F062FA9D
:1047A00053EC192B04F064FECDE906012FE06848B4
:1047B000A0421FDD02249FED689B9DED060B53EC8C
:1047C000192B51EC100B05F041F853EC182B04F0A9
:1047D00093FD9DED060B41EC180B53EC192B51EC9E
:1047E000100B05F03FFA53EC182B04F041FECDE915
:1047F00006010CE09DED060B032453EC102B9FEDFE
:10480000580B51EC100B04F033FECDE906019DED81
:10481000060B53EC102B51EC100B05F017F841EC84
:10482000180B53EC182B05F011F841EC190B4E48FE
:104830000621B0EE490AF0EE690A784401F060F909
:1048400053EC182B51EC100B05F000F841EC180B51
:104850004648B0EE490AF0EE690A0521784401F0B5
:104860004FF953EC192B51EC100B04F0EFFF41EC16
:10487000100B51EC180B53EC102B002C0EDA04F03B
:104880003BFD9DED061B53EC112B04F0DFFF9DED6E
:10489000061B53EC112B05F00DF935E004F02CFD4F
:1048A0009DED061B53EC112B04F0D0FF41EC100BD7
:1048B0002F48784400EBC40090ED001B51EC100B26
:1048C00053EC112B05F0CEF99DED061B53EC112B8B
:1048D00005F0C8F941EC100B2648784400EBC40001
:1048E00090ED001B51EC100B53EC112B05F0E2F88E
:1048F00041EC100B002DA2BFBDEC068B02B070BDC9
:1049000051EC100B04F0BAFC41EC100B01E7000075
:10491000000010440000F07F182D4454FB21F93FA3
:10492000182D4454FB21F9BF0000DC3F0000203E5D
:104930000000F33F00000000000000000000F03F16
:104940000000E63F00000000000000000000004002
:104950000080034000000000000000000000F83F5D
:10496000000000000000F0BFF26C0000A86C000026
:10497000326C0000EA6B00002DE9F04D2DED040BC8
:104980002DED0E8B96B0DDE92550279CDDF890A02B
:1049900025F0004624F00048BAF1000F14BF0121B1
:1049A000002101EB4502FC4953184A1093422AD3D7
:1049B000002814BF0123002303EB44030B44F749F1
:1049C0008B4220D358EA00019FEDF59B76D0DFF8AB
:1049D000D8B35D4503D1BAF1000F05D188E0BAF133
:1049E000000F08BF002100D0012101EB450111F5A6
:1049F000001F08D8002814BF0121002101EB440149
:104A000011F5001F0BD99DED261B9DED240B16B053
:104A1000BDEC0E8B04B0BDE8F04D01F0B7BA002735
:104A2000002DBCBFE149884521DAE1498845A8BF8E
:104A300002271CDAC3451ADCDE4901EB2851142990
:104A400008DDC1F1340220FA02F101FA02F28242D9
:104A50000DD108E058B9C1F1140228FA02F101FAA7
:104A600002F2424503D101F00101C1F1020756EA09
:104A70000A0124D1002C22DA002D18BF022F01D008
:104A8000012F0AD00220FBF793FD16B0BDEC0E8B70
:104A900004B0BDE8F04D01F057BA0220FBF788FDE5
:104AA00001F052FA51EC100B04F0E8FB41EC100B52
:104AB00016B0BDEC0E8B04B0BDE8F08D18E09FED94
:104AC000BEAB9FEDBF8B002871D1B848804522D185
:104AD00005F1804010F5801008BFBAF1000F07D033
:104AE000B3450ADC002CA8BF9DED260BE0DA0DE0F3
:104AF000B0EE490AF0EE690ADAE7002C06DA9DED1D
:104B0000260B51EC100B04F0B9FB6FE0AE48784473
:104B100090ED000BCCE7D8454DD1002C48DA2EB1F2
:104B200086423AD1BAF1000F42D126E0BAF1000F25
:104B300013D00220FBF73CFD01F042FA8DED020B91
:104B40009DED240B8DED000B10EE900A039961F39F
:104B50001E0003909DED020BAAE78DED02AB9DEDCB
:104B6000240B1AEE901A10EE900A8DED000B61F3F3
:104B70001E0003909DED020B9AE78DED028B9DEDDB
:104B8000240B18EE901A10EE900A8DED000B61F3D5
:104B90001E0003909DED020B8AE709DA9DED240BC0
:104BA00051EC190B53EC102B04F062FC1EE020E0DA
:104BB0009DED240B7CE786421BDAB4F1804F0DD0CB
:104BC000A4F10050B0F1FF5013D1002D11DB9DED89
:104BD000240B51EC100B02F0AFFE07E09DED240B0F
:104BE00053EC102B51EC100B00F0C2BC41EC100B3D
:104BF0005EE79DED240B51EC100B01F0BDFCBAF10A
:104C0000000FCDE90E0142D19FED710B46B3A6F125
:104C1000E040B0F17F600CD05E4538D1002D00DA65
:104C2000A7B3022F0CBF01204FF0FF3004F0A7FD07
:104C3000DCE7002D01DD002C0DDA002D01DD002C5C
:104C40001FDB002D16DA002C14DB012F08BF9FEDAF
:104C5000620B3FF42DAFB0EE4A0AF0EE6A0A27E786
:104C6000022F18BF002D0CD0012F0AD1002DFFF606
:104C70001FAF06E0002DB8BF002C08DA012F3FF46B
:104C800017AFB0EE480AF0EE680A11E71BE001200A
:104C900000EBE57050EA070115D0791EB0EE498AA5
:104CA000F0EE698A084308BF9FED4D8B4E48002502
:104CB000804570DD4D494E48884514DDB0420DDB1E
:104CC000002C19DB2FE00120FBF772FC16B0BDECC5
:104CD0000E8B04B0BDE8F04D01F062B9B34502DCC3
:104CE000002C09DC1FE0864202DA002C1BDA03E00C
:104CF0005E452BDD002C16DD0220FBF759FC01F090
:104D00005FF98DED020B53EC1A2B51EC180B04F0EC
:104D10009DFDCDE900010399019861F31E00039008
:104D20009DED020BC4E60220FBF742FC01F058F9AE
:104D300010EE901A18EE900A8DED020B8DED008B9F
:104D400061F31E0003909DED020BB1E69DED0E0B8D
:104D500053EC192B51EC100B04F084FF9FED260B44
:104D6000CDE9080153EC102B9DED080B51EC100B15
:104D700004F06CFD9FED221B53EC112B04F09AFE06
:104D80009DED081B53EC112B04F060FD9FED1E1BE5
:104D900053EC112B3CE08CE0FFFF1F00FFFF0F00E6
:104DA000000000000000F03F0000F03F0000F07F36
:104DB0000000404301FCFFFF000000000000F07F06
:104DC0000000000000000000D66A000000000000A3
:104DD0000000000000000080000000000000F0FF64
:104DE000000000000000F0BF0000E0410000F043C0
:104DF000FFFFEF3F00000000000000000000D03F78
:104E0000555555555555D53F000000000000E03F71
:104E100004F050FE9DED080B41EC1A0B53EC102BE7
:104E200051EC100B04F012FD53EC1A2B04F00EFDA4
:104E300041EC1A0B9FEDFE0B53EC102B9DED080B74
:104E400051EC100B04F002FD41EC1B0B9FEDFA0B33
:104E500051EC1A0B53EC102B04F0F8FC41EC1A0B3C
:104E60009FEDF70B53EC102B9DED080B51EC100B45
:104E700004F0ECFC53EC1A2B04F0F4FE41EC1A0B9A
:104E800051EC1B0B53EC1A2B04F036FA0690CDE9CB
:104E900006519DED060B53EC1B2B51EC100B04F04F
:104EA000E1FE53EC1A2B04F005FE41EC100B00F070
:104EB000A1B90020B6F5801F0EDA9FEDE30B53EC8D
:104EC000102B9DED0E0B51EC100B04F0BFFCCDE947
:104ED0000E016FF034000E4600EB2650A0F2FF37B3
:104EE000C6F31300DA4940F07F6646F04056884228
:104EF000D8BF002408DDD7498142C8BF012403DCA4
:104F00000024A6F580167F1CD348784400EBC4002B
:104F10000F9690ED00CB9DED0E0B53EC1C2B51EC3E
:104F2000100B04F09FFE9DED0E0B41EC1B0B53ECA0
:104F30001C2B51EC100B04F0DFF941EC100B51EC81
:104F4000190B53EC102B04F093FA41EC1D0B51ECB0
:104F50001B0B53EC1D2B04F079FC41EC1A0BBF48E2
:104F60008DED10AB7844109590ED000B4FF0005094
:104F700040EA660000EB84408DED080B00F5002050
:104F800009909DED080B53EC1C2B51EC100B04F019
:104F900069FE9DED0E1B53EC112B04F08BFD41ECD3
:104FA000100B53EC102B9DED100B51EC100B04F07B
:104FB0004DFC9DED080B41EC1C0B53EC102B9DEDB3
:104FC000100B51EC100B04F041FC53EC1B2B04F0C4
:104FD00071FD53EC1C2B04F045FE53EC1D2B04F02B
:104FE00035FC41EC1C0B53EC1A2B51EC1A0B04F062
:104FF0002DFC41EC1B0B9A480621B0EE4B0AF0EE5B
:105000006B0A784400F07CFDB0EE401AF0EE601AB6
:10501000B0EE41DAF0EE61DA53EC1B2B51EC1B0BD6
:1050200004F014FC53EC1D2B04F010FC9DED100B50
:1050300041EC1B0B53EC1A2B51EC100B04F05CF9F8
:1050400053EC1C2B04F002FC53EC1B2B04F054F922
:105050009DED100B41EC1B0B53EC102B51EC100B86
:1050600004F0F4FB41EC1D0B9FED7FEB53EC1E2B8A
:1050700004F042F953EC1B2B04F03EF90890CDE903
:1050800008519DED080B53EC1E2B51EC100B04F056
:10509000E9FD53EC1D2B04F0E5FD53EC1B2B04F054
:1050A00009FD9DED080B41EC1D0B53EC102B9DED04
:1050B000100B51EC100B04F0C9FB41EC1B0B53EC33
:1050C0001A2B51EC1D0B04F0C1FB9DED080B41ECBC
:1050D0001A0B53EC102B51EC1C0B04F0B7FB53ECE8
:1050E0001A2B04F009F941EC1A0B51EC1B0B53EC91
:1050F0001A2B04F001F90C90CDE90C519DED0C0B2D
:1051000053EC1B2B51EC100B04F0ACFD53EC1A2BA1
:1051100004F0D0FC41EC1B0B9FED550B53EC102B16
:105120009DED0C0B51EC100B04F090FB41EC1A0BB5
:105130009FED510B51EC1B0B53EC102B04F086FB35
:1051400041EC1B0B9FED4E0B53EC102B9DED0C0B0C
:1051500051EC100B04F07AFB53EC1B2B04F0CCF851
:1051600041EC100B4848784400EBC40090ED001B64
:1051700051EC100B53EC112B04F0BEF841EC1B0B5F
:10518000384604F0FCFACDE9080153EC1B2B51EC36
:105190001A0B04F0B1F841EC100B3C48784400EBDA
:1051A000C40090ED00CB51EC100B53EC1C2B04F021
:1051B000A3F89DED081B53EC112B04F09DF806900D
:1051C000CDE906519DED080B53EC102B9DED060B20
:1051D00051EC100B04F046FD53EC1C2B04F042FD87
:1051E00053EC1A2B04F03EFD53EC1B2B04F062FC35
:1051F00041EC100B9DED261B53EC102B8DED001B8D
:1052000000959DED260B51EC100B04F01FFB9DED5E
:10521000000B41EC1A0B53EC102B9DED260B51ECBF
:10522000100B04F01FFD9DED061B53EC112B2FE01E
:10523000000000604715F73FFE822B654715F73FDA
:1052400044DF5DF80BAE543E000000000000404318
:105250008E9803007AB60B0052660000806600004C
:105260008A65000000000000000000000000084007
:10527000000000E009C7EE3FFD033ADC09C7EE3F3E
:10528000F5015B14E02F3EBE16640000D063000001
:1052900004F0DCFA53EC1A2B04F02EF89DED060B0B
:1052A00041EC1A0B53EC102B9DED000B51EC100B45
:1052B00004F0CCFACDE90C019DED0C0B51EC1A0B6E
:1052C00053EC102B04F018F8CDE902010C46AA4962
:1052D0008C422FDB611A084318D19DED0C0B53EC67
:1052E000102B9DED020B51EC100B04F0BBFC41ECBC
:1052F0001B0B9FEDA30B51EC1A0B53EC102B03F07F
:10530000FBFF53EC1B2B04F09FFB2DD20220FBF77D
:105310004FF900F055FE10EE901A18EE900A8DED40
:10532000020B8DED008B61F31E0003909DED020BCF
:10533000FFF7BEBB944A24F00041914214D3934935
:10534000214408437FF4EFAC9DED0C0B53EC102B84
:105350009DED020B51EC100B04F084FC53EC1A2B66
:1053600004F072FB7FF6DFAC24F000408849894AE4
:10537000002601EB205182422BDA481C4FF48011A9
:1053800021FA00F02044844AC0F30A517A44A1F281
:10539000FF3192ED000B814A8DED080BCA4020EAE7
:1053A0000202C0F3130040F48010C1F1140120FA8E
:1053B00001F60992002CB8BF76429DED080B53EC24
:1053C000102B9DED0C0B51EC100B04F04BFCCDE9B8
:1053D0000C019DED0C0B51EC1A0B53EC102B03F050
:1053E0008BFF9FED6F0B0890CDE9085153EC102B0C
:1053F0009DED080B51EC100B04F028FA41EC1B0B4F
:105400009FED690B53EC102B9DED080B51EC100B2D
:1054100004F01CFA9DED0C0B41EC1C0B53EC102B13
:105420009DED080B51EC100B04F01CFC53EC1A2BF7
:1054300004F040FB9FED5E1B53EC112B04F006FAC9
:1054400053EC1C2B03F058FF41EC1A0B51EC1B0BD7
:1054500053EC1A2B03F050FFCDE902019DED020B36
:1054600053EC1B2B51EC100B04F0FCFB53EC1A2BF0
:1054700004F020FB9DED020B41EC1A0B53EC102BBA
:1054800051EC100B04F0E2F9CDE908014A489DED1A
:10549000080B0521784400F033FB9DED081B51EC0F
:1054A000100B53EC112B04F0D1F99DED021B53ECC2
:1054B000112B04F0FFFACDE906019DED020B53EC30
:1054C0001A2B51EC100B04F0C1F953EC1A2B03F01A
:1054D00013FF9FED3B0B41EC1A0B53EC102B9DED92
:1054E000060B51EC100B04F0BDFB9DED060B41ECDF
:1054F0001B0B53EC102B9DED020B51EC100B04F029
:10550000A5F953EC1B2B03F0B3FF53EC1A2B04F05B
:10551000A9FB9DED021B53EC112B04F0A3FB53ECF4
:10552000192B04F0C7FACDE9020101EB0650011571
:105530000029C8BF039015DC9DED020B324651ECEB
:10554000100B04F026FDFFF791F8042808BF00F0C7
:1055500047FD32469DED020B51EC100B04F019FD96
:10556000CDE902019DED020B51EC180B53EC102B11
:1055700004F06CF9FFF73ABB000090400000000017
:10558000FE822B654715973C00CC904000346F3F5E
:1055900001FCFFFF0000E03F58620000FFFF0F002A
:1055A00000000000432EE63F396CA80C615C20BE71
:1055B000EF39FAFE422EE63F2861000000000000AD
:1055C000000000000000004000B52DED048BB0EE9F
:1055D000409AF0EE609A83B051EC190B04F076FA21
:1055E00041EC180B18EE100A18EE901A8DED008B96
:1055F000002818BF0120084320F00040C0F17F6060
:1056000000F1E040C00F14D019EE101A19EE900A04
:105610008DED009B002918BF0121084320F00040B8
:10562000C0F17F6000F1E040C00F04BF0120FAF735
:10563000BFFFB0EE480A03B0F0EE680ABDEC048B81
:1056400000BD00000000000010B51D499FED1A1BB1
:105650002DED020B84B0059820F000408842DCBF9D
:1056600001209DED040B21DD1649884209D10498E3
:1056700040B94FF00100FAF79BFF00F091FC06B033
:1056800010BD05DB9DED040B00F076FC06B010BDEF
:1056900068469DED040B00F017F800F001000121B1
:1056A000A1EB40009DED021B9DED000B00F0A4FA64
:1056B00006B010BD00000000000000000000000067
:1056C000FB21E93F0000F07F2DE9F14F04462DED6D
:1056D000020B2DED088B8AB09FEDE70B80ED020BDE
:1056E000139EE74826F0004585420ADC9DED120B2B
:1056F000002084ED000B0AB0BDEC088B03B0BDE8C0
:10570000F08FE0489FEDE0AB9FEDE1BBA84247DDA5
:10571000E14F9FEDE39B9FEDE48B9DED120B53EC6E
:105720001A2B51EC100B002E1CDD04F09BFA41ECFF
:10573000100BBD4208D053EC1B2B51EC100B04F0A6
:1057400091FAC4E900010BE053EC192B51EC100B5A
:1057500004F088FA53EC182B04F084FAC4E9000131
:105760000120C8E703F0C8FD41EC100BBD4208D092
:1057700053EC1B2B51EC100B03F0BEFDC4E90001F0
:105780000BE053EC192B51EC100B03F0B5FD53EC6F
:10579000182B03F0B1FDC4E900014FF0FF30AAE778
:1057A000C348A84279DB9DED120B51EC100B00F0C1
:1057B000E3FE41EC180B9FEDC00B53EC102B04F0F3
:1057C00045F89FEDBF1B53EC112B03F095FD03F043
:1057D000A7FF074603F0D3FF41EC190B53EC1A2B3C
:1057E00004F034F853EC182B04F064F941EC180B76
:1057F00053EC1B2B51EC190B04F028F8DFF8C8A26E
:1058000041EC100B4FEA15580125FA4453EC102BCC
:1058100051EC180B04F026FA032DC4E900013DD029
:10582000C1F30A5005EB4511A8EB00001139814284
:1058300034DA0AEB051BB0EE48AA9BED000BF0EE44
:1058400068AA53EC102B51EC190B03F0FFFF41EC4D
:105850001B0B51EC1A0B53EC1B2B04F003FA41EC1D
:10586000180B51EC1A0B53EC182B04F0FBF953EC0A
:105870001B2B04F0F7F99BED020B41EC1A0B53ECD8
:10588000102B51EC190B03F0E1FF53EC1A2B04F031
:10589000E9F941EC100B6D1CB8E70EE0002EA8BF33
:1058A0003846BFF628AF94ED000B51EC100B03F017
:1058B000E5FCC4E9000178421DE7C6F3130040F49B
:1058C000801EC6F30A50A0F2F530471100F01F0504
:1058D000C5F12000DDF848B0089000200690079040
:1058E0000520EC467949002D07EB0002794408BFFA
:1058F00051F8221009D051F8223001EB8201AB405F
:105900004A68089922FA01F11943A1FB0E26A1FB6E
:105910000B131A449A4234BF0123002303EB0608F9
:105920000CEB8003D3E901A60E448E4234BF012163
:10593000002192448A4411B1924502D903E0924574
:1059400001D2012100E00021C3E901A641444CF845
:105950002010011EA0F10100C4DC029800F10050EB
:10596000850F0298DDE903678000DDF8148003F0FD
:1059700006FF41EC1A0B304603F018FF9FED541B55
:1059800053EC112B03F062FF41EC1B0B384603F084
:105990000DFF9FED511B53EC112B03F057FF41EC12
:1059A000180B404603F002FF9FED4D1B53EC112BEB
:1059B00003F04CFF41EC190B51EC180B53EC192B75
:1059C00003F09AFC53EC1B2B03F096FC53EC1A2BC0
:1059D00003F092FCCDE90801002008909DED080B32
:1059E00053EC1A2B51EC100B04F03CF953EC1B2B2D
:1059F00004F038F953EC182B04F034F953EC192B5C
:105A000004F058F89FED381B53EC112B03F01EFFE8
:105A10009FED370B41EC180B53EC102B9DED080B51
:105A200051EC100B03F012FF53EC182B03F064FC45
:105A30009FED310B41EC180B53EC102B9DED080B37
:105A400051EC100B03F002FF53EC182B03F054FC45
:105A500041EC100B139810F0004F06D06D4251EC42
:105A6000100B03F00BFC41EC100B284684ED000BEF
:105A700041E60000000000000000000000000000FF
:105A8000FB21E93F7CD9024000004054FB21F93F53
:105A90003163621A61B4D03DFB21F93F0000000080
:105AA0000000601A61B4D03D7370032E8A19A33BC5
:105AB000FB2139410000000083C8C96D305FE43F1D
:105AC000000000000000E03FE25D0000305D0000EB
:105AD000000000000000103E000000000000103C2C
